{
  "contractName": "Arks",
  "abi": [
    {
      "inputs": [],
      "stateMutability": "nonpayable",
      "type": "constructor"
    },
    {
      "anonymous": false,
      "inputs": [
        {
          "indexed": true,
          "internalType": "address",
          "name": "from",
          "type": "address"
        },
        {
          "indexed": true,
          "internalType": "address",
          "name": "to",
          "type": "address"
        },
        {
          "indexed": true,
          "internalType": "uint256",
          "name": "tokenId",
          "type": "uint256"
        }
      ],
      "name": "Transfer",
      "type": "event"
    },
    {
      "inputs": [
        {
          "internalType": "uint256",
          "name": "",
          "type": "uint256"
        }
      ],
      "name": "arks",
      "outputs": [
        {
          "internalType": "string",
          "name": "",
          "type": "string"
        }
      ],
      "stateMutability": "view",
      "type": "function",
      "constant": true
    },
    {
      "inputs": [
        {
          "internalType": "address",
          "name": "_owner",
          "type": "address"
        }
      ],
      "name": "balanceOf",
      "outputs": [
        {
          "internalType": "uint256",
          "name": "",
          "type": "uint256"
        }
      ],
      "stateMutability": "view",
      "type": "function",
      "constant": true
    },
    {
      "inputs": [],
      "name": "name",
      "outputs": [
        {
          "internalType": "string",
          "name": "",
          "type": "string"
        }
      ],
      "stateMutability": "view",
      "type": "function",
      "constant": true
    },
    {
      "inputs": [
        {
          "internalType": "uint256",
          "name": "_tokenID",
          "type": "uint256"
        }
      ],
      "name": "ownerOf",
      "outputs": [
        {
          "internalType": "address",
          "name": "",
          "type": "address"
        }
      ],
      "stateMutability": "view",
      "type": "function",
      "constant": true
    },
    {
      "inputs": [
        {
          "internalType": "bytes4",
          "name": "interfaceId",
          "type": "bytes4"
        }
      ],
      "name": "supportsInterface",
      "outputs": [
        {
          "internalType": "bool",
          "name": "",
          "type": "bool"
        }
      ],
      "stateMutability": "view",
      "type": "function",
      "constant": true
    },
    {
      "inputs": [],
      "name": "symbol",
      "outputs": [
        {
          "internalType": "string",
          "name": "",
          "type": "string"
        }
      ],
      "stateMutability": "view",
      "type": "function",
      "constant": true
    },
    {
      "inputs": [
        {
          "internalType": "uint256",
          "name": "index",
          "type": "uint256"
        }
      ],
      "name": "tokenByIndex",
      "outputs": [
        {
          "internalType": "uint256",
          "name": "",
          "type": "uint256"
        }
      ],
      "stateMutability": "view",
      "type": "function",
      "constant": true
    },
    {
      "inputs": [
        {
          "internalType": "address",
          "name": "owner",
          "type": "address"
        },
        {
          "internalType": "uint256",
          "name": "index",
          "type": "uint256"
        }
      ],
      "name": "tokenOfOwnerByIndex",
      "outputs": [
        {
          "internalType": "uint256",
          "name": "",
          "type": "uint256"
        }
      ],
      "stateMutability": "view",
      "type": "function",
      "constant": true
    },
    {
      "inputs": [],
      "name": "totalSupply",
      "outputs": [
        {
          "internalType": "uint256",
          "name": "",
          "type": "uint256"
        }
      ],
      "stateMutability": "view",
      "type": "function",
      "constant": true
    },
    {
      "inputs": [
        {
          "internalType": "address",
          "name": "to",
          "type": "address"
        },
        {
          "internalType": "address",
          "name": "from",
          "type": "address"
        },
        {
          "internalType": "uint256",
          "name": "tokenID",
          "type": "uint256"
        }
      ],
      "name": "transferFrom",
      "outputs": [],
      "stateMutability": "payable",
      "type": "function",
      "payable": true
    },
    {
      "inputs": [
        {
          "internalType": "string",
          "name": "_arks",
          "type": "string"
        }
      ],
      "name": "mint",
      "outputs": [],
      "stateMutability": "nonpayable",
      "type": "function"
    }
  ],
  "bytecode": "0x60806040523480156200001157600080fd5b506040518060400160405280600681526020017f41726b61746500000000000000000000000000000000000000000000000000008152506040518060400160405280600481526020017f41524b54000000000000000000000000000000000000000000000000000000008152508181620000ba7f01ffc9a7a5cef8baa21ed3c5c0d7e23accb804b619e9333b597f47a0d84076e26200024e640100000000026401000000009004565b8160019080519060200190620000d292919062000341565b508060029080519060200190620000eb92919062000341565b50620001487f95d89b41e2f5f391a79ec54e9d87c79d6e777c63e32c28da95b4e9e4a79250ec7f06fdde0383f15d582d1a74511486c9ddf862a882fb7904b3d9fe9b8b8e58a796186200024e640100000000026401000000009004565b5050620001c87f6352211e6566aa027e75ac9dbf2423197fbd9b82b9d981a3ab367d355866aa1c7f70a08231b98ef4ca268c9cc3f6b4590e4bfec28280db06bb5d45e689f2a360be7fb642fe57385c30591f4a5d574f2a37c71dee9880879cb99176c8c5e32632dcfa18186200024e640100000000026401000000009004565b620002467f18160ddd7f15c72528c2f94fd8dfe3c8d5aa26e2c50c7d81f4bc7bee8d4b79327f4f6ccce7c41aed90ec1f1887c4a821594c0f73758d8941d0ccaa2cde813b72987f85e16c1d3abcd68a5b49b3118db6a2d60a34339214902c6672830b0c673744a018186200024e640100000000026401000000009004565b5050620004d8565b63ffffffff7c010000000000000000000000000000000000000000000000000000000002817bffffffffffffffffffffffffffffffffffffffffffffffffffffffff191603620002d5576040517f08c379a0000000000000000000000000000000000000000000000000000000008152600401620002cc9062000452565b60405180910390fd5b6001600080837bffffffffffffffffffffffffffffffffffffffffffffffffffffffff19167bffffffffffffffffffffffffffffffffffffffffffffffffffffffff1916815260200190815260200160002060006101000a81548160ff02191690831515021790555050565b8280546200034f90620004a3565b90600052602060002090601f016020900481019282620003735760008555620003bf565b82601f106200038e57805160ff1916838001178555620003bf565b82800160010185558215620003bf579182015b82811115620003be578251825591602001919060010190620003a1565b5b509050620003ce9190620003d2565b5090565b5b80821115620003ed576000816000905550600101620003d3565b5090565b600082825260208201905092915050565b7f4552433136353a20496e76616c696420496e7465726661636500000000000000600082015250565b60006200043a601983620003f1565b9150620004478262000402565b602082019050919050565b600060208201905081810360008301526200046d816200042b565b9050919050565b7f4e487b7100000000000000000000000000000000000000000000000000000000600052602260045260246000fd5b60006002820490506001821680620004bc57607f821691505b602082108103620004d257620004d162000474565b5b50919050565b61196480620004e86000396000f3fe6080604052600436106100b9576000357c0100000000000000000000000000000000000000000000000000000000900480634f6ccce7116100815780634f6ccce7146101aa5780636352211e146101e757806370a082311461022457806395d89b4114610261578063d85d3d271461028c578063ff32a42a146102b5576100b9565b806301ffc9a7146100be57806306fdde03146100fb57806318160ddd1461012657806323b872dd146101515780632f745c591461016d575b600080fd5b3480156100ca57600080fd5b506100e560048036038101906100e09190610f50565b6102f2565b6040516100f29190610f98565b60405180910390f35b34801561010757600080fd5b50610110610359565b60405161011d919061104c565b60405180910390f35b34801561013257600080fd5b5061013b6103eb565b6040516101489190611087565b60405180910390f35b61016b6004803603810190610166919061112c565b6103f8565b005b34801561017957600080fd5b50610194600480360381019061018f919061117f565b610408565b6040516101a19190611087565b60405180910390f35b3480156101b657600080fd5b506101d160048036038101906101cc91906111bf565b6104b8565b6040516101de9190611087565b60405180910390f35b3480156101f357600080fd5b5061020e600480360381019061020991906111bf565b610529565b60405161021b91906111fb565b60405180910390f35b34801561023057600080fd5b5061024b60048036038101906102469190611216565b61056b565b6040516102589190611087565b60405180910390f35b34801561026d57600080fd5b50610276610622565b604051610283919061104c565b60405180910390f35b34801561029857600080fd5b506102b360048036038101906102ae9190611378565b6106b4565b005b3480156102c157600080fd5b506102dc60048036038101906102d791906111bf565b6107b7565b6040516102e9919061104c565b60405180910390f35b6000806000837bffffffffffffffffffffffffffffffffffffffffffffffffffffffff19167bffffffffffffffffffffffffffffffffffffffffffffffffffffffff1916815260200190815260200160002060009054906101000a900460ff169050919050565b606060018054610368906113f0565b80601f0160208091040260200160405190810160405280929190818152602001828054610394906113f0565b80156103e15780601f106103b6576101008083540402835291602001916103e1565b820191906000526020600020905b8154815290600101906020018083116103c457829003601f168201915b5050505050905090565b6000600580549050905090565b610403838383610863565b505050565b60006104138361056b565b8210610454576040517f08c379a000000000000000000000000000000000000000000000000000000000815260040161044b9061146d565b60405180910390fd5b600760008473ffffffffffffffffffffffffffffffffffffffff1673ffffffffffffffffffffffffffffffffffffffff16815260200190815260200160002082815481106104a5576104a461148d565b5b9060005260206000200154905092915050565b60006104c26103eb565b8210610503576040517f08c379a00000000000000000000000000000000000000000000000000000000081526004016104fa90611508565b60405180910390fd5b600582815481106105175761051661148d565b5b90600052602060002001549050919050565b6000806003600084815260200190815260200160002060009054906101000a900473ffffffffffffffffffffffffffffffffffffffff16905080915050919050565b60008073ffffffffffffffffffffffffffffffffffffffff168273ffffffffffffffffffffffffffffffffffffffff16036105db576040517f08c379a00000000000000000000000000000000000000000000000000000000081526004016105d290611574565b60405180910390fd5b600460008373ffffffffffffffffffffffffffffffffffffffff1673ffffffffffffffffffffffffffffffffffffffff168152602001908152602001600020549050919050565b606060028054610631906113f0565b80601f016020809104026020016040519081016040528092919081815260200182805461065d906113f0565b80156106aa5780601f1061067f576101008083540402835291602001916106aa565b820191906000526020600020905b81548152906001019060200180831161068d57829003601f168201915b5050505050905090565b600a816040516106c491906115d0565b908152602001604051809103902060009054906101000a900460ff1615610720576040517f08c379a000000000000000000000000000000000000000000000000000000000815260040161071790611633565b60405180910390fd5b60098190806001815401808255809150506001900390600052602060002001600090919091909150908051906020019061075b929190610e41565b50600060016009805490506107709190611682565b905061077c3382610aa8565b6001600a8360405161078e91906115d0565b908152602001604051809103902060006101000a81548160ff0219169083151502179055505050565b600981815481106107c757600080fd5b9060005260206000200160009150905080546107e2906113f0565b80601f016020809104026020016040519081016040528092919081815260200182805461080e906113f0565b801561085b5780601f106108305761010080835404028352916020019161085b565b820191906000526020600020905b81548152906001019060200180831161083e57829003601f168201915b505050505081565b600073ffffffffffffffffffffffffffffffffffffffff168373ffffffffffffffffffffffffffffffffffffffff16146108d2576040517f08c379a00000000000000000000000000000000000000000000000000000000081526004016108c990611728565b60405180910390fd5b8173ffffffffffffffffffffffffffffffffffffffff166108f282610529565b73ffffffffffffffffffffffffffffffffffffffff1614610948576040517f08c379a000000000000000000000000000000000000000000000000000000000815260040161093f906117ba565b60405180910390fd5b6001600460008473ffffffffffffffffffffffffffffffffffffffff1673ffffffffffffffffffffffffffffffffffffffff16815260200190815260200160002060008282546109989190611682565b925050819055506001600460008573ffffffffffffffffffffffffffffffffffffffff1673ffffffffffffffffffffffffffffffffffffffff16815260200190815260200160002060008282546109ef91906117da565b92505081905550826003600083815260200190815260200160002060006101000a81548173ffffffffffffffffffffffffffffffffffffffff021916908373ffffffffffffffffffffffffffffffffffffffff160217905550808373ffffffffffffffffffffffffffffffffffffffff168373ffffffffffffffffffffffffffffffffffffffff167fddf252ad1be2c89b69c2b068fc378daa952ba7f163c4a11628f55a4df523b3ef60405160405180910390a4505050565b610ab28282610ac9565b610abb81610cc2565b610ac58282610d0b565b5050565b600073ffffffffffffffffffffffffffffffffffffffff168273ffffffffffffffffffffffffffffffffffffffff1603610b38576040517f08c379a0000000000000000000000000000000000000000000000000000000008152600401610b2f906118a2565b60405180910390fd5b610b4181610dcf565b15610b81576040517f08c379a0000000000000000000000000000000000000000000000000000000008152600401610b789061190e565b60405180910390fd5b816003600083815260200190815260200160002060006101000a81548173ffffffffffffffffffffffffffffffffffffffff021916908373ffffffffffffffffffffffffffffffffffffffff1602179055506001600460008473ffffffffffffffffffffffffffffffffffffffff1673ffffffffffffffffffffffffffffffffffffffff16815260200190815260200160002054610c1f91906117da565b600460008473ffffffffffffffffffffffffffffffffffffffff1673ffffffffffffffffffffffffffffffffffffffff16815260200190815260200160002081905550808273ffffffffffffffffffffffffffffffffffffffff16600073ffffffffffffffffffffffffffffffffffffffff167fddf252ad1be2c89b69c2b068fc378daa952ba7f163c4a11628f55a4df523b3ef60405160405180910390a45050565b6005805490506006600083815260200190815260200160002081905550600581908060018154018082558091505060019003906000526020600020016000909190919091505550565b600760008373ffffffffffffffffffffffffffffffffffffffff1673ffffffffffffffffffffffffffffffffffffffff168152602001908152602001600020805490506008600083815260200190815260200160002081905550600760008373ffffffffffffffffffffffffffffffffffffffff1673ffffffffffffffffffffffffffffffffffffffff1681526020019081526020016000208190806001815401808255809150506001900390600052602060002001600090919091909150555050565b6000806003600084815260200190815260200160002060009054906101000a900473ffffffffffffffffffffffffffffffffffffffff169050600073ffffffffffffffffffffffffffffffffffffffff168173ffffffffffffffffffffffffffffffffffffffff161415915050919050565b828054610e4d906113f0565b90600052602060002090601f016020900481019282610e6f5760008555610eb6565b82601f10610e8857805160ff1916838001178555610eb6565b82800160010185558215610eb6579182015b82811115610eb5578251825591602001919060010190610e9a565b5b509050610ec39190610ec7565b5090565b5b80821115610ee0576000816000905550600101610ec8565b5090565b6000604051905090565b600080fd5b600080fd5b60007fffffffff0000000000000000000000000000000000000000000000000000000082169050919050565b610f2d81610ef8565b8114610f3857600080fd5b50565b600081359050610f4a81610f24565b92915050565b600060208284031215610f6657610f65610eee565b5b6000610f7484828501610f3b565b91505092915050565b60008115159050919050565b610f9281610f7d565b82525050565b6000602082019050610fad6000830184610f89565b92915050565b600081519050919050565b600082825260208201905092915050565b60005b83811015610fed578082015181840152602081019050610fd2565b83811115610ffc576000848401525b50505050565b6000601f19601f8301169050919050565b600061101e82610fb3565b6110288185610fbe565b9350611038818560208601610fcf565b61104181611002565b840191505092915050565b600060208201905081810360008301526110668184611013565b905092915050565b6000819050919050565b6110818161106e565b82525050565b600060208201905061109c6000830184611078565b92915050565b600073ffffffffffffffffffffffffffffffffffffffff82169050919050565b60006110cd826110a2565b9050919050565b6110dd816110c2565b81146110e857600080fd5b50565b6000813590506110fa816110d4565b92915050565b6111098161106e565b811461111457600080fd5b50565b60008135905061112681611100565b92915050565b60008060006060848603121561114557611144610eee565b5b6000611153868287016110eb565b9350506020611164868287016110eb565b925050604061117586828701611117565b9150509250925092565b6000806040838503121561119657611195610eee565b5b60006111a4858286016110eb565b92505060206111b585828601611117565b9150509250929050565b6000602082840312156111d5576111d4610eee565b5b60006111e384828501611117565b91505092915050565b6111f5816110c2565b82525050565b600060208201905061121060008301846111ec565b92915050565b60006020828403121561122c5761122b610eee565b5b600061123a848285016110eb565b91505092915050565b600080fd5b600080fd5b7f4e487b7100000000000000000000000000000000000000000000000000000000600052604160045260246000fd5b61128582611002565b810181811067ffffffffffffffff821117156112a4576112a361124d565b5b80604052505050565b60006112b7610ee4565b90506112c3828261127c565b919050565b600067ffffffffffffffff8211156112e3576112e261124d565b5b6112ec82611002565b9050602081019050919050565b82818337600083830152505050565b600061131b611316846112c8565b6112ad565b90508281526020810184848401111561133757611336611248565b5b6113428482856112f9565b509392505050565b600082601f83011261135f5761135e611243565b5b813561136f848260208601611308565b91505092915050565b60006020828403121561138e5761138d610eee565b5b600082013567ffffffffffffffff8111156113ac576113ab610ef3565b5b6113b88482850161134a565b91505092915050565b7f4e487b7100000000000000000000000000000000000000000000000000000000600052602260045260246000fd5b6000600282049050600182168061140857607f821691505b60208210810361141b5761141a6113c1565b5b50919050565b7f4f776e657220696e646578206f7574206f6620626f756e640000000000000000600082015250565b6000611457601883610fbe565b915061146282611421565b602082019050919050565b600060208201905081810360008301526114868161144a565b9050919050565b7f4e487b7100000000000000000000000000000000000000000000000000000000600052603260045260246000fd5b7f476c6f62616c212c20496e646578204f7574204f6620426f756e640000000000600082015250565b60006114f2601b83610fbe565b91506114fd826114bc565b602082019050919050565b60006020820190508181036000830152611521816114e5565b9050919050565b7f496e76616c6964204f776e65722044657461696c000000000000000000000000600082015250565b600061155e601483610fbe565b915061156982611528565b602082019050919050565b6000602082019050818103600083015261158d81611551565b9050919050565b600081905092915050565b60006115aa82610fb3565b6115b48185611594565b93506115c4818560208601610fcf565b80840191505092915050565b60006115dc828461159f565b915081905092915050565b7f416c7265616479204d696e746564000000000000000000000000000000000000600082015250565b600061161d600e83610fbe565b9150611628826115e7565b602082019050919050565b6000602082019050818103600083015261164c81611610565b9050919050565b7f4e487b7100000000000000000000000000000000000000000000000000000000600052601160045260246000fd5b600061168d8261106e565b91506116988361106e565b9250828210156116ab576116aa611653565b5b828203905092915050565b7f547279696e6720746f207472616e7366657220746f207a65726f20616464726560008201527f7373000000000000000000000000000000000000000000000000000000000000602082015250565b6000611712602283610fbe565b915061171d826116b6565b604082019050919050565b6000602082019050818103600083015261174181611705565b9050919050565b7f547279696e6720746f207472616e73666572206120746f6b656e20746861742060008201527f646f65736e27742062656c6f6e6720746f20796f750000000000000000000000602082015250565b60006117a4603583610fbe565b91506117af82611748565b604082019050919050565b600060208201905081810360008301526117d381611797565b9050919050565b60006117e58261106e565b91506117f08361106e565b9250827fffffffffffffffffffffffffffffffffffffffffffffffffffffffffffffffff0382111561182557611824611653565b5b828201905092915050565b7f4552433732313a206d696e6974696e6720746f20746865207a65726f2061646460008201527f7265737300000000000000000000000000000000000000000000000000000000602082015250565b600061188c602483610fbe565b915061189782611830565b604082019050919050565b600060208201905081810360008301526118bb8161187f565b9050919050565b7f546f6b656e20416c7265616479204d696e746564000000000000000000000000600082015250565b60006118f8601483610fbe565b9150611903826118c2565b602082019050919050565b60006020820190508181036000830152611927816118eb565b905091905056fea26469706673582212202ace05710ec6082d125f823e6914e833f912b6eb758e0e180139afc6507f97b264736f6c634300080d0033",
  "immutableReferences": {},
  "source": "// SPDX-License-Identifier: MIT\npragma solidity ^0.8.13;\n\nimport './ERC-721Connector.sol';\n\ncontract Arks is ERC721Connector {\n    \n    string[] public arks;\n    mapping ( string => bool ) _arksExists;\n\n    constructor () ERC721Connector('Arkate', 'ARKT') {\n        \n    }\n\n    function mint(string memory _arks) public {\n        require(!_arksExists[_arks], 'Already Minted');\n       arks.push(_arks);\n       uint _id = arks.length - 1;\n       _mint(msg.sender, _id);\n       _arksExists[_arks] = true;\n    }\n\n}",
  "sourcePath": "/home/lone/Programming-Stuff/BlockchainProjects/nft-marketplace-ethereum/src/contracts/Arks.sol",
  "compiler": {
    "name": "solc",
    "version": "0.8.13+commit.abaa5c0e.Emscripten.clang"
  },
  "schemaVersion": "3.4.7",
  "updatedAt": "2022-04-17T11:38:42.595Z",
  "networkType": "ethereum",
  "devdoc": {
    "kind": "dev",
    "methods": {
      "balanceOf(address)": {
        "details": "NFTs assigned to the zero address are considered invalid, and this  function throws for queries about the zero address.",
        "params": {
          "_owner": "An address for whom to query the balance"
        },
        "returns": {
          "_0": "The number of NFTs owned by `_owner`, possibly zero"
        }
      },
      "totalSupply()": {
        "returns": {
          "_0": "A count of valid NFTs tracked by this contract, where each one of  them has an assigned and queryable owner not equal to the zero address"
        }
      }
    },
    "version": 1
  },
  "userdoc": {
    "kind": "user",
    "methods": {
      "balanceOf(address)": {
        "notice": "Count all NFTs assigned to an owner"
      },
      "name()": {
        "notice": "A descriptive name for a collection of NFTs in this contract"
      },
      "symbol()": {
        "notice": "An abbreviated name for NFTs in this contract"
      },
      "totalSupply()": {
        "notice": "Count NFTs tracked by this contract"
      }
    },
    "version": 1
  }
}