{
  "contractName": "ERC721",
  "abi": [
    {
      "inputs": [],
      "stateMutability": "nonpayable",
      "type": "constructor"
    },
    {
      "anonymous": false,
      "inputs": [
        {
          "indexed": true,
          "internalType": "address",
          "name": "from",
          "type": "address"
        },
        {
          "indexed": true,
          "internalType": "address",
          "name": "to",
          "type": "address"
        },
        {
          "indexed": true,
          "internalType": "uint256",
          "name": "tokenId",
          "type": "uint256"
        }
      ],
      "name": "Transfer",
      "type": "event"
    },
    {
      "inputs": [
        {
          "internalType": "bytes4",
          "name": "interfaceId",
          "type": "bytes4"
        }
      ],
      "name": "supportsInterface",
      "outputs": [
        {
          "internalType": "bool",
          "name": "",
          "type": "bool"
        }
      ],
      "stateMutability": "view",
      "type": "function"
    },
    {
      "inputs": [
        {
          "internalType": "address",
          "name": "to",
          "type": "address"
        },
        {
          "internalType": "address",
          "name": "from",
          "type": "address"
        },
        {
          "internalType": "uint256",
          "name": "tokenID",
          "type": "uint256"
        }
      ],
      "name": "transferFrom",
      "outputs": [],
      "stateMutability": "payable",
      "type": "function"
    },
    {
      "inputs": [
        {
          "internalType": "address",
          "name": "_owner",
          "type": "address"
        }
      ],
      "name": "balanceOf",
      "outputs": [
        {
          "internalType": "uint256",
          "name": "",
          "type": "uint256"
        }
      ],
      "stateMutability": "view",
      "type": "function"
    },
    {
      "inputs": [
        {
          "internalType": "uint256",
          "name": "_tokenID",
          "type": "uint256"
        }
      ],
      "name": "ownerOf",
      "outputs": [
        {
          "internalType": "address",
          "name": "",
          "type": "address"
        }
      ],
      "stateMutability": "view",
      "type": "function"
    }
  ],
  "bytecode": "0x608060405234801561001057600080fd5b506100497f01ffc9a7a5cef8baa21ed3c5c0d7e23accb804b619e9333b597f47a0d84076e26100ca640100000000026401000000009004565b6100c57f6352211e6566aa027e75ac9dbf2423197fbd9b82b9d981a3ab367d355866aa1c7f70a08231b98ef4ca268c9cc3f6b4590e4bfec28280db06bb5d45e689f2a360be7fb642fe57385c30591f4a5d574f2a37c71dee9880879cb99176c8c5e32632dcfa18186100ca640100000000026401000000009004565b610237565b63ffffffff7c010000000000000000000000000000000000000000000000000000000002817bffffffffffffffffffffffffffffffffffffffffffffffffffffffff19160361014e576040517f08c379a000000000000000000000000000000000000000000000000000000000815260040161014590610217565b60405180910390fd5b6001600080837bffffffffffffffffffffffffffffffffffffffffffffffffffffffff19167bffffffffffffffffffffffffffffffffffffffffffffffffffffffff1916815260200190815260200160002060006101000a81548160ff02191690831515021790555050565b600082825260208201905092915050565b7f4552433136353a20496e76616c696420496e7465726661636500000000000000600082015250565b60006102016019836101ba565b915061020c826101cb565b602082019050919050565b60006020820190508181036000830152610230816101f4565b9050919050565b6109ce806102466000396000f3fe60806040526004361061005c576000357c01000000000000000000000000000000000000000000000000000000009004806301ffc9a71461006157806323b872dd1461009e5780636352211e146100ba57806370a08231146100f7575b600080fd5b34801561006d57600080fd5b5061008860048036038101906100839190610546565b610134565b604051610095919061058e565b60405180910390f35b6100b860048036038101906100b3919061063d565b61019b565b005b3480156100c657600080fd5b506100e160048036038101906100dc9190610690565b6101ab565b6040516100ee91906106cc565b60405180910390f35b34801561010357600080fd5b5061011e600480360381019061011991906106e7565b6101ed565b60405161012b9190610723565b60405180910390f35b6000806000837bffffffffffffffffffffffffffffffffffffffffffffffffffffffff19167bffffffffffffffffffffffffffffffffffffffffffffffffffffffff1916815260200190815260200160002060009054906101000a900460ff169050919050565b6101a68383836102a4565b505050565b6000806001600084815260200190815260200160002060009054906101000a900473ffffffffffffffffffffffffffffffffffffffff16905080915050919050565b60008073ffffffffffffffffffffffffffffffffffffffff168273ffffffffffffffffffffffffffffffffffffffff160361025d576040517f08c379a00000000000000000000000000000000000000000000000000000000081526004016102549061079b565b60405180910390fd5b600260008373ffffffffffffffffffffffffffffffffffffffff1673ffffffffffffffffffffffffffffffffffffffff168152602001908152602001600020549050919050565b600073ffffffffffffffffffffffffffffffffffffffff168373ffffffffffffffffffffffffffffffffffffffff1614610313576040517f08c379a000000000000000000000000000000000000000000000000000000000815260040161030a9061082d565b60405180910390fd5b8173ffffffffffffffffffffffffffffffffffffffff16610333826101ab565b73ffffffffffffffffffffffffffffffffffffffff1614610389576040517f08c379a0000000000000000000000000000000000000000000000000000000008152600401610380906108bf565b60405180910390fd5b6001600260008473ffffffffffffffffffffffffffffffffffffffff1673ffffffffffffffffffffffffffffffffffffffff16815260200190815260200160002060008282546103d9919061090e565b925050819055506001600260008573ffffffffffffffffffffffffffffffffffffffff1673ffffffffffffffffffffffffffffffffffffffff16815260200190815260200160002060008282546104309190610942565b92505081905550826001600083815260200190815260200160002060006101000a81548173ffffffffffffffffffffffffffffffffffffffff021916908373ffffffffffffffffffffffffffffffffffffffff160217905550808373ffffffffffffffffffffffffffffffffffffffff168373ffffffffffffffffffffffffffffffffffffffff167fddf252ad1be2c89b69c2b068fc378daa952ba7f163c4a11628f55a4df523b3ef60405160405180910390a4505050565b600080fd5b60007fffffffff0000000000000000000000000000000000000000000000000000000082169050919050565b610523816104ee565b811461052e57600080fd5b50565b6000813590506105408161051a565b92915050565b60006020828403121561055c5761055b6104e9565b5b600061056a84828501610531565b91505092915050565b60008115159050919050565b61058881610573565b82525050565b60006020820190506105a3600083018461057f565b92915050565b600073ffffffffffffffffffffffffffffffffffffffff82169050919050565b60006105d4826105a9565b9050919050565b6105e4816105c9565b81146105ef57600080fd5b50565b600081359050610601816105db565b92915050565b6000819050919050565b61061a81610607565b811461062557600080fd5b50565b60008135905061063781610611565b92915050565b600080600060608486031215610656576106556104e9565b5b6000610664868287016105f2565b9350506020610675868287016105f2565b925050604061068686828701610628565b9150509250925092565b6000602082840312156106a6576106a56104e9565b5b60006106b484828501610628565b91505092915050565b6106c6816105c9565b82525050565b60006020820190506106e160008301846106bd565b92915050565b6000602082840312156106fd576106fc6104e9565b5b600061070b848285016105f2565b91505092915050565b61071d81610607565b82525050565b60006020820190506107386000830184610714565b92915050565b600082825260208201905092915050565b7f496e76616c6964204f776e65722044657461696c000000000000000000000000600082015250565b600061078560148361073e565b91506107908261074f565b602082019050919050565b600060208201905081810360008301526107b481610778565b9050919050565b7f547279696e6720746f207472616e7366657220746f207a65726f20616464726560008201527f7373000000000000000000000000000000000000000000000000000000000000602082015250565b600061081760228361073e565b9150610822826107bb565b604082019050919050565b600060208201905081810360008301526108468161080a565b9050919050565b7f547279696e6720746f207472616e73666572206120746f6b656e20746861742060008201527f646f65736e27742062656c6f6e6720746f20796f750000000000000000000000602082015250565b60006108a960358361073e565b91506108b48261084d565b604082019050919050565b600060208201905081810360008301526108d88161089c565b9050919050565b7f4e487b7100000000000000000000000000000000000000000000000000000000600052601160045260246000fd5b600061091982610607565b915061092483610607565b925082821015610937576109366108df565b5b828203905092915050565b600061094d82610607565b915061095883610607565b9250827fffffffffffffffffffffffffffffffffffffffffffffffffffffffffffffffff0382111561098d5761098c6108df565b5b82820190509291505056fea2646970667358221220f02991a47fbb5849dc11661ecd5eee1b47c93add979d579e49a8aee4cef8522464736f6c634300080d0033",
  "immutableReferences": {},
  "source": "// SPDX-License-Identifier: MIT\npragma solidity ^0.8.13;\n\nimport './ERC-165.sol';\nimport './interface/IERC-721.sol';\n\ncontract ERC721  is ERC165, IERC721 {\n\n    event Transfer (\n        address indexed from,\n        address indexed to,\n        uint256 indexed tokenId ); \n\n    mapping (uint256 => address) tokensOwner;\n    mapping (address => uint256) tokensOwnedCount;\n\n    function _exists(uint256 tokenID) internal view returns(bool) {\n      address owner = tokensOwner[tokenID];\n      return owner != address(0);\n    }\n\n    function _mint(address to, uint256 tokenId) internal virtual {\n       require(to != address(0), 'ERC721: miniting to the zero address');\n       require(!_exists(tokenId), 'Token Already Minted');\n       tokensOwner[tokenId] = to;\n       tokensOwnedCount[to] = tokensOwnedCount[to] + 1;\n       \n       emit Transfer(address(0), to, tokenId); \n    } \n\n    function _transferFrom(address _to, address _from, uint256 _tokenID) internal {\n        require(_to == address(0), \"Trying to transfer to zero address\");\n        require(ownerOf(_tokenID) == _from, \"Trying to transfer a token that doesn't belong to you\");\n        tokensOwnedCount[_from] -= 1;\n        tokensOwnedCount[_to] += 1;\n        tokensOwner[_tokenID] = _to;\n        emit Transfer(_from, _to, _tokenID);\n    }\n\n    function transferFrom(address to, address from, uint256 tokenID) public override payable  {\n        _transferFrom(to, from, tokenID);\n    }\n\n    function balanceOf(address _owner) public override view returns(uint256) {\n        require(_owner != address(0), \"Invalid Owner Detail\");\n        return tokensOwnedCount[_owner];\n    }\n    function ownerOf(uint256 _tokenID) public override view returns (address) {\n        address owner = tokensOwner[_tokenID];\n        return owner;\n    }\n\n    constructor() {\n        _registerInterface(bytes4(keccak256('transferFrom(address, address, uint256)') \n                                             ^ keccak256('balanceOf(address)') \n                                             ^ keccak256('ownerOf(uint256)')));\n    } \n}",
  "sourcePath": "/home/lone/Programming-Stuff/BlockchainProjects/nft-marketplace-ethereum/src/contracts/ERC-721.sol",
  "compiler": {
    "name": "solc",
    "version": "0.8.13+commit.abaa5c0e.Emscripten.clang"
  },
  "schemaVersion": "3.4.7",
  "updatedAt": "2022-04-16T19:16:42.580Z",
  "devdoc": {
    "kind": "dev",
    "methods": {
      "balanceOf(address)": {
        "details": "NFTs assigned to the zero address are considered invalid, and this  function throws for queries about the zero address.",
        "params": {
          "_owner": "An address for whom to query the balance"
        },
        "returns": {
          "_0": "The number of NFTs owned by `_owner`, possibly zero"
        }
      }
    },
    "version": 1
  },
  "userdoc": {
    "kind": "user",
    "methods": {
      "balanceOf(address)": {
        "notice": "Count all NFTs assigned to an owner"
      }
    },
    "version": 1
  }
}