{
  "contractName": "ERC721Metadata",
  "abi": [
    {
      "inputs": [
        {
          "internalType": "string",
          "name": "named",
          "type": "string"
        },
        {
          "internalType": "string",
          "name": "symbolified",
          "type": "string"
        }
      ],
      "stateMutability": "nonpayable",
      "type": "constructor"
    },
    {
      "inputs": [
        {
          "internalType": "bytes4",
          "name": "interfaceId",
          "type": "bytes4"
        }
      ],
      "name": "supportsInterface",
      "outputs": [
        {
          "internalType": "bool",
          "name": "",
          "type": "bool"
        }
      ],
      "stateMutability": "view",
      "type": "function"
    },
    {
      "inputs": [],
      "name": "name",
      "outputs": [
        {
          "internalType": "string",
          "name": "",
          "type": "string"
        }
      ],
      "stateMutability": "view",
      "type": "function"
    },
    {
      "inputs": [],
      "name": "symbol",
      "outputs": [
        {
          "internalType": "string",
          "name": "",
          "type": "string"
        }
      ],
      "stateMutability": "view",
      "type": "function"
    }
  ],
  "bytecode": "0x60806040523480156200001157600080fd5b5060405162000a2e38038062000a2e833981810160405281019062000037919062000447565b620000717f01ffc9a7a5cef8baa21ed3c5c0d7e23accb804b619e9333b597f47a0d84076e262000107640100000000026401000000009004565b816001908051906020019062000089929190620001fa565b508060029080519060200190620000a2929190620001fa565b50620000ff7f95d89b41e2f5f391a79ec54e9d87c79d6e777c63e32c28da95b4e9e4a79250ec7f06fdde0383f15d582d1a74511486c9ddf862a882fb7904b3d9fe9b8b8e58a7961862000107640100000000026401000000009004565b5050620005b3565b63ffffffff7c010000000000000000000000000000000000000000000000000000000002817bffffffffffffffffffffffffffffffffffffffffffffffffffffffff1916036200018e576040517f08c379a000000000000000000000000000000000000000000000000000000000815260040162000185906200052d565b60405180910390fd5b6001600080837bffffffffffffffffffffffffffffffffffffffffffffffffffffffff19167bffffffffffffffffffffffffffffffffffffffffffffffffffffffff1916815260200190815260200160002060006101000a81548160ff02191690831515021790555050565b82805462000208906200057e565b90600052602060002090601f0160209004810192826200022c576000855562000278565b82601f106200024757805160ff191683800117855562000278565b8280016001018555821562000278579182015b82811115620002775782518255916020019190600101906200025a565b5b5090506200028791906200028b565b5090565b5b80821115620002a65760008160009055506001016200028c565b5090565b6000604051905090565b600080fd5b600080fd5b600080fd5b600080fd5b6000601f19601f8301169050919050565b7f4e487b7100000000000000000000000000000000000000000000000000000000600052604160045260246000fd5b6200031382620002c8565b810181811067ffffffffffffffff82111715620003355762000334620002d9565b5b80604052505050565b60006200034a620002aa565b905062000358828262000308565b919050565b600067ffffffffffffffff8211156200037b576200037a620002d9565b5b6200038682620002c8565b9050602081019050919050565b60005b83811015620003b357808201518184015260208101905062000396565b83811115620003c3576000848401525b50505050565b6000620003e0620003da846200035d565b6200033e565b905082815260208101848484011115620003ff57620003fe620002c3565b5b6200040c84828562000393565b509392505050565b600082601f8301126200042c576200042b620002be565b5b81516200043e848260208601620003c9565b91505092915050565b60008060408385031215620004615762000460620002b4565b5b600083015167ffffffffffffffff811115620004825762000481620002b9565b5b620004908582860162000414565b925050602083015167ffffffffffffffff811115620004b457620004b3620002b9565b5b620004c28582860162000414565b9150509250929050565b600082825260208201905092915050565b7f4552433136353a20496e76616c696420496e7465726661636500000000000000600082015250565b600062000515601983620004cc565b91506200052282620004dd565b602082019050919050565b60006020820190508181036000830152620005488162000506565b9050919050565b7f4e487b7100000000000000000000000000000000000000000000000000000000600052602260045260246000fd5b600060028204905060018216806200059757607f821691505b602082108103620005ad57620005ac6200054f565b5b50919050565b61046b80620005c36000396000f3fe608060405234801561001057600080fd5b506004361061005e576000357c01000000000000000000000000000000000000000000000000000000009004806301ffc9a71461006357806306fdde031461009357806395d89b41146100b1575b600080fd5b61007d600480360381019061007891906102b7565b6100cf565b60405161008a91906102ff565b60405180910390f35b61009b610136565b6040516100a891906103b3565b60405180910390f35b6100b96101c8565b6040516100c691906103b3565b60405180910390f35b6000806000837bffffffffffffffffffffffffffffffffffffffffffffffffffffffff19167bffffffffffffffffffffffffffffffffffffffffffffffffffffffff1916815260200190815260200160002060009054906101000a900460ff169050919050565b60606001805461014590610404565b80601f016020809104026020016040519081016040528092919081815260200182805461017190610404565b80156101be5780601f10610193576101008083540402835291602001916101be565b820191906000526020600020905b8154815290600101906020018083116101a157829003601f168201915b5050505050905090565b6060600280546101d790610404565b80601f016020809104026020016040519081016040528092919081815260200182805461020390610404565b80156102505780601f1061022557610100808354040283529160200191610250565b820191906000526020600020905b81548152906001019060200180831161023357829003601f168201915b5050505050905090565b600080fd5b60007fffffffff0000000000000000000000000000000000000000000000000000000082169050919050565b6102948161025f565b811461029f57600080fd5b50565b6000813590506102b18161028b565b92915050565b6000602082840312156102cd576102cc61025a565b5b60006102db848285016102a2565b91505092915050565b60008115159050919050565b6102f9816102e4565b82525050565b600060208201905061031460008301846102f0565b92915050565b600081519050919050565b600082825260208201905092915050565b60005b83811015610354578082015181840152602081019050610339565b83811115610363576000848401525b50505050565b6000601f19601f8301169050919050565b60006103858261031a565b61038f8185610325565b935061039f818560208601610336565b6103a881610369565b840191505092915050565b600060208201905081810360008301526103cd818461037a565b905092915050565b7f4e487b7100000000000000000000000000000000000000000000000000000000600052602260045260246000fd5b6000600282049050600182168061041c57607f821691505b60208210810361042f5761042e6103d5565b5b5091905056fea2646970667358221220a5762f07c2cdbbb64c8fcd50ab99dd24bcff238b833804642f0b67e35ffadc9164736f6c634300080d0033",
  "immutableReferences": {},
  "source": "// SPDX-License-Identifier: MIT\npragma solidity ^0.8.13;\n\nimport './interface/IERC-721Metadata.sol';\nimport './ERC-165.sol';\n\ncontract ERC721Metadata is IERC721Metadata, ERC165 {\n    string private _name;\n    string private _symbol;\n\n    constructor ( string memory named, string memory symbolified ) {\n           _name = named;\n           _symbol = symbolified;\n           _registerInterface(bytes4(keccak256('name()') \n                                             ^ keccak256('symbol()')));\n    }\n\n    function name() external view override returns ( string memory ) {\n         return _name;\n    }\n\n    function symbol() external view override returns ( string memory ) {\n         return _symbol;\n    }\n}",
  "sourcePath": "/home/lone/Programming-Stuff/BlockchainProjects/nft-marketplace-ethereum/src/contracts/ERC-721Metadata.sol",
  "compiler": {
    "name": "solc",
    "version": "0.8.13+commit.abaa5c0e.Emscripten.clang"
  },
  "schemaVersion": "3.4.7",
  "updatedAt": "2022-04-16T19:16:42.611Z",
  "devdoc": {
    "kind": "dev",
    "methods": {},
    "version": 1
  },
  "userdoc": {
    "kind": "user",
    "methods": {
      "name()": {
        "notice": "A descriptive name for a collection of NFTs in this contract"
      },
      "symbol()": {
        "notice": "An abbreviated name for NFTs in this contract"
      }
    },
    "version": 1
  }
}