{
  "contractName": "ERC721Connector",
  "abi": [
    {
      "inputs": [
        {
          "internalType": "string",
          "name": "name",
          "type": "string"
        },
        {
          "internalType": "string",
          "name": "symbol",
          "type": "string"
        }
      ],
      "stateMutability": "nonpayable",
      "type": "constructor"
    },
    {
      "anonymous": false,
      "inputs": [
        {
          "indexed": true,
          "internalType": "address",
          "name": "from",
          "type": "address"
        },
        {
          "indexed": true,
          "internalType": "address",
          "name": "to",
          "type": "address"
        },
        {
          "indexed": true,
          "internalType": "uint256",
          "name": "tokenId",
          "type": "uint256"
        }
      ],
      "name": "Transfer",
      "type": "event"
    },
    {
      "inputs": [
        {
          "internalType": "address",
          "name": "_owner",
          "type": "address"
        }
      ],
      "name": "balanceOf",
      "outputs": [
        {
          "internalType": "uint256",
          "name": "",
          "type": "uint256"
        }
      ],
      "stateMutability": "view",
      "type": "function"
    },
    {
      "inputs": [],
      "name": "name",
      "outputs": [
        {
          "internalType": "string",
          "name": "",
          "type": "string"
        }
      ],
      "stateMutability": "view",
      "type": "function"
    },
    {
      "inputs": [
        {
          "internalType": "uint256",
          "name": "_tokenID",
          "type": "uint256"
        }
      ],
      "name": "ownerOf",
      "outputs": [
        {
          "internalType": "address",
          "name": "",
          "type": "address"
        }
      ],
      "stateMutability": "view",
      "type": "function"
    },
    {
      "inputs": [
        {
          "internalType": "bytes4",
          "name": "interfaceId",
          "type": "bytes4"
        }
      ],
      "name": "supportsInterface",
      "outputs": [
        {
          "internalType": "bool",
          "name": "",
          "type": "bool"
        }
      ],
      "stateMutability": "view",
      "type": "function"
    },
    {
      "inputs": [],
      "name": "symbol",
      "outputs": [
        {
          "internalType": "string",
          "name": "",
          "type": "string"
        }
      ],
      "stateMutability": "view",
      "type": "function"
    },
    {
      "inputs": [
        {
          "internalType": "uint256",
          "name": "index",
          "type": "uint256"
        }
      ],
      "name": "tokenByIndex",
      "outputs": [
        {
          "internalType": "uint256",
          "name": "",
          "type": "uint256"
        }
      ],
      "stateMutability": "view",
      "type": "function"
    },
    {
      "inputs": [
        {
          "internalType": "address",
          "name": "owner",
          "type": "address"
        },
        {
          "internalType": "uint256",
          "name": "index",
          "type": "uint256"
        }
      ],
      "name": "tokenOfOwnerByIndex",
      "outputs": [
        {
          "internalType": "uint256",
          "name": "",
          "type": "uint256"
        }
      ],
      "stateMutability": "view",
      "type": "function"
    },
    {
      "inputs": [],
      "name": "totalSupply",
      "outputs": [
        {
          "internalType": "uint256",
          "name": "",
          "type": "uint256"
        }
      ],
      "stateMutability": "view",
      "type": "function"
    },
    {
      "inputs": [
        {
          "internalType": "address",
          "name": "to",
          "type": "address"
        },
        {
          "internalType": "address",
          "name": "from",
          "type": "address"
        },
        {
          "internalType": "uint256",
          "name": "tokenID",
          "type": "uint256"
        }
      ],
      "name": "transferFrom",
      "outputs": [],
      "stateMutability": "payable",
      "type": "function"
    }
  ],
  "bytecode": "0x60806040523480156200001157600080fd5b506040516200167638038062001676833981810160405281019062000037919062000547565b8181620000737f01ffc9a7a5cef8baa21ed3c5c0d7e23accb804b619e9333b597f47a0d84076e262000207640100000000026401000000009004565b81600190805190602001906200008b929190620002fa565b508060029080519060200190620000a4929190620002fa565b50620001017f95d89b41e2f5f391a79ec54e9d87c79d6e777c63e32c28da95b4e9e4a79250ec7f06fdde0383f15d582d1a74511486c9ddf862a882fb7904b3d9fe9b8b8e58a7961862000207640100000000026401000000009004565b5050620001817f6352211e6566aa027e75ac9dbf2423197fbd9b82b9d981a3ab367d355866aa1c7f70a08231b98ef4ca268c9cc3f6b4590e4bfec28280db06bb5d45e689f2a360be7fb642fe57385c30591f4a5d574f2a37c71dee9880879cb99176c8c5e32632dcfa181862000207640100000000026401000000009004565b620001ff7f18160ddd7f15c72528c2f94fd8dfe3c8d5aa26e2c50c7d81f4bc7bee8d4b79327f4f6ccce7c41aed90ec1f1887c4a821594c0f73758d8941d0ccaa2cde813b72987f85e16c1d3abcd68a5b49b3118db6a2d60a34339214902c6672830b0c673744a0181862000207640100000000026401000000009004565b5050620006b3565b63ffffffff7c010000000000000000000000000000000000000000000000000000000002817bffffffffffffffffffffffffffffffffffffffffffffffffffffffff1916036200028e576040517f08c379a000000000000000000000000000000000000000000000000000000000815260040162000285906200062d565b60405180910390fd5b6001600080837bffffffffffffffffffffffffffffffffffffffffffffffffffffffff19167bffffffffffffffffffffffffffffffffffffffffffffffffffffffff1916815260200190815260200160002060006101000a81548160ff02191690831515021790555050565b82805462000308906200067e565b90600052602060002090601f0160209004810192826200032c576000855562000378565b82601f106200034757805160ff191683800117855562000378565b8280016001018555821562000378579182015b82811115620003775782518255916020019190600101906200035a565b5b5090506200038791906200038b565b5090565b5b80821115620003a65760008160009055506001016200038c565b5090565b6000604051905090565b600080fd5b600080fd5b600080fd5b600080fd5b6000601f19601f8301169050919050565b7f4e487b7100000000000000000000000000000000000000000000000000000000600052604160045260246000fd5b6200041382620003c8565b810181811067ffffffffffffffff82111715620004355762000434620003d9565b5b80604052505050565b60006200044a620003aa565b905062000458828262000408565b919050565b600067ffffffffffffffff8211156200047b576200047a620003d9565b5b6200048682620003c8565b9050602081019050919050565b60005b83811015620004b357808201518184015260208101905062000496565b83811115620004c3576000848401525b50505050565b6000620004e0620004da846200045d565b6200043e565b905082815260208101848484011115620004ff57620004fe620003c3565b5b6200050c84828562000493565b509392505050565b600082601f8301126200052c576200052b620003be565b5b81516200053e848260208601620004c9565b91505092915050565b60008060408385031215620005615762000560620003b4565b5b600083015167ffffffffffffffff811115620005825762000581620003b9565b5b620005908582860162000514565b925050602083015167ffffffffffffffff811115620005b457620005b3620003b9565b5b620005c28582860162000514565b9150509250929050565b600082825260208201905092915050565b7f4552433136353a20496e76616c696420496e7465726661636500000000000000600082015250565b600062000615601983620005cc565b91506200062282620005dd565b602082019050919050565b60006020820190508181036000830152620006488162000606565b9050919050565b7f4e487b7100000000000000000000000000000000000000000000000000000000600052602260045260246000fd5b600060028204905060018216806200069757607f821691505b602082108103620006ad57620006ac6200064f565b5b50919050565b610fb380620006c36000396000f3fe6080604052600436106100a3576000357c0100000000000000000000000000000000000000000000000000000000900480632f745c59116100765780632f745c59146101575780634f6ccce7146101945780636352211e146101d157806370a082311461020e57806395d89b411461024b576100a3565b806301ffc9a7146100a857806306fdde03146100e557806318160ddd1461011057806323b872dd1461013b575b600080fd5b3480156100b457600080fd5b506100cf60048036038101906100ca91906108da565b610276565b6040516100dc9190610922565b60405180910390f35b3480156100f157600080fd5b506100fa6102dd565b60405161010791906109d6565b60405180910390f35b34801561011c57600080fd5b5061012561036f565b6040516101329190610a11565b60405180910390f35b61015560048036038101906101509190610ab6565b61037c565b005b34801561016357600080fd5b5061017e60048036038101906101799190610b09565b61038c565b60405161018b9190610a11565b60405180910390f35b3480156101a057600080fd5b506101bb60048036038101906101b69190610b49565b61043c565b6040516101c89190610a11565b60405180910390f35b3480156101dd57600080fd5b506101f860048036038101906101f39190610b49565b6104ad565b6040516102059190610b85565b60405180910390f35b34801561021a57600080fd5b5061023560048036038101906102309190610ba0565b6104ef565b6040516102429190610a11565b60405180910390f35b34801561025757600080fd5b506102606105a6565b60405161026d91906109d6565b60405180910390f35b6000806000837bffffffffffffffffffffffffffffffffffffffffffffffffffffffff19167bffffffffffffffffffffffffffffffffffffffffffffffffffffffff1916815260200190815260200160002060009054906101000a900460ff169050919050565b6060600180546102ec90610bfc565b80601f016020809104026020016040519081016040528092919081815260200182805461031890610bfc565b80156103655780601f1061033a57610100808354040283529160200191610365565b820191906000526020600020905b81548152906001019060200180831161034857829003601f168201915b5050505050905090565b6000600580549050905090565b610387838383610638565b505050565b6000610397836104ef565b82106103d8576040517f08c379a00000000000000000000000000000000000000000000000000000000081526004016103cf90610c79565b60405180910390fd5b600760008473ffffffffffffffffffffffffffffffffffffffff1673ffffffffffffffffffffffffffffffffffffffff168152602001908152602001600020828154811061042957610428610c99565b5b9060005260206000200154905092915050565b600061044661036f565b8210610487576040517f08c379a000000000000000000000000000000000000000000000000000000000815260040161047e90610d14565b60405180910390fd5b6005828154811061049b5761049a610c99565b5b90600052602060002001549050919050565b6000806003600084815260200190815260200160002060009054906101000a900473ffffffffffffffffffffffffffffffffffffffff16905080915050919050565b60008073ffffffffffffffffffffffffffffffffffffffff168273ffffffffffffffffffffffffffffffffffffffff160361055f576040517f08c379a000000000000000000000000000000000000000000000000000000000815260040161055690610d80565b60405180910390fd5b600460008373ffffffffffffffffffffffffffffffffffffffff1673ffffffffffffffffffffffffffffffffffffffff168152602001908152602001600020549050919050565b6060600280546105b590610bfc565b80601f01602080910402602001604051908101604052809291908181526020018280546105e190610bfc565b801561062e5780601f106106035761010080835404028352916020019161062e565b820191906000526020600020905b81548152906001019060200180831161061157829003601f168201915b5050505050905090565b600073ffffffffffffffffffffffffffffffffffffffff168373ffffffffffffffffffffffffffffffffffffffff16146106a7576040517f08c379a000000000000000000000000000000000000000000000000000000000815260040161069e90610e12565b60405180910390fd5b8173ffffffffffffffffffffffffffffffffffffffff166106c7826104ad565b73ffffffffffffffffffffffffffffffffffffffff161461071d576040517f08c379a000000000000000000000000000000000000000000000000000000000815260040161071490610ea4565b60405180910390fd5b6001600460008473ffffffffffffffffffffffffffffffffffffffff1673ffffffffffffffffffffffffffffffffffffffff168152602001908152602001600020600082825461076d9190610ef3565b925050819055506001600460008573ffffffffffffffffffffffffffffffffffffffff1673ffffffffffffffffffffffffffffffffffffffff16815260200190815260200160002060008282546107c49190610f27565b92505081905550826003600083815260200190815260200160002060006101000a81548173ffffffffffffffffffffffffffffffffffffffff021916908373ffffffffffffffffffffffffffffffffffffffff160217905550808373ffffffffffffffffffffffffffffffffffffffff168373ffffffffffffffffffffffffffffffffffffffff167fddf252ad1be2c89b69c2b068fc378daa952ba7f163c4a11628f55a4df523b3ef60405160405180910390a4505050565b600080fd5b60007fffffffff0000000000000000000000000000000000000000000000000000000082169050919050565b6108b781610882565b81146108c257600080fd5b50565b6000813590506108d4816108ae565b92915050565b6000602082840312156108f0576108ef61087d565b5b60006108fe848285016108c5565b91505092915050565b60008115159050919050565b61091c81610907565b82525050565b60006020820190506109376000830184610913565b92915050565b600081519050919050565b600082825260208201905092915050565b60005b8381101561097757808201518184015260208101905061095c565b83811115610986576000848401525b50505050565b6000601f19601f8301169050919050565b60006109a88261093d565b6109b28185610948565b93506109c2818560208601610959565b6109cb8161098c565b840191505092915050565b600060208201905081810360008301526109f0818461099d565b905092915050565b6000819050919050565b610a0b816109f8565b82525050565b6000602082019050610a266000830184610a02565b92915050565b600073ffffffffffffffffffffffffffffffffffffffff82169050919050565b6000610a5782610a2c565b9050919050565b610a6781610a4c565b8114610a7257600080fd5b50565b600081359050610a8481610a5e565b92915050565b610a93816109f8565b8114610a9e57600080fd5b50565b600081359050610ab081610a8a565b92915050565b600080600060608486031215610acf57610ace61087d565b5b6000610add86828701610a75565b9350506020610aee86828701610a75565b9250506040610aff86828701610aa1565b9150509250925092565b60008060408385031215610b2057610b1f61087d565b5b6000610b2e85828601610a75565b9250506020610b3f85828601610aa1565b9150509250929050565b600060208284031215610b5f57610b5e61087d565b5b6000610b6d84828501610aa1565b91505092915050565b610b7f81610a4c565b82525050565b6000602082019050610b9a6000830184610b76565b92915050565b600060208284031215610bb657610bb561087d565b5b6000610bc484828501610a75565b91505092915050565b7f4e487b7100000000000000000000000000000000000000000000000000000000600052602260045260246000fd5b60006002820490506001821680610c1457607f821691505b602082108103610c2757610c26610bcd565b5b50919050565b7f4f776e657220696e646578206f7574206f6620626f756e640000000000000000600082015250565b6000610c63601883610948565b9150610c6e82610c2d565b602082019050919050565b60006020820190508181036000830152610c9281610c56565b9050919050565b7f4e487b7100000000000000000000000000000000000000000000000000000000600052603260045260246000fd5b7f476c6f62616c212c20496e646578204f7574204f6620426f756e640000000000600082015250565b6000610cfe601b83610948565b9150610d0982610cc8565b602082019050919050565b60006020820190508181036000830152610d2d81610cf1565b9050919050565b7f496e76616c6964204f776e65722044657461696c000000000000000000000000600082015250565b6000610d6a601483610948565b9150610d7582610d34565b602082019050919050565b60006020820190508181036000830152610d9981610d5d565b9050919050565b7f547279696e6720746f207472616e7366657220746f207a65726f20616464726560008201527f7373000000000000000000000000000000000000000000000000000000000000602082015250565b6000610dfc602283610948565b9150610e0782610da0565b604082019050919050565b60006020820190508181036000830152610e2b81610def565b9050919050565b7f547279696e6720746f207472616e73666572206120746f6b656e20746861742060008201527f646f65736e27742062656c6f6e6720746f20796f750000000000000000000000602082015250565b6000610e8e603583610948565b9150610e9982610e32565b604082019050919050565b60006020820190508181036000830152610ebd81610e81565b9050919050565b7f4e487b7100000000000000000000000000000000000000000000000000000000600052601160045260246000fd5b6000610efe826109f8565b9150610f09836109f8565b925082821015610f1c57610f1b610ec4565b5b828203905092915050565b6000610f32826109f8565b9150610f3d836109f8565b9250827fffffffffffffffffffffffffffffffffffffffffffffffffffffffffffffffff03821115610f7257610f71610ec4565b5b82820190509291505056fea2646970667358221220a514ee403121e84fa1fc00d59232722030ccd406efd02cc685554f82b8da93c364736f6c634300080d0033",
  "immutableReferences": {},
  "source": "// SPDX-License-Identifier: MIT\npragma solidity ^0.8.13;\n\nimport './ERC-721Metadata.sol';\nimport './ERC-721Enumerable.sol';\n\ncontract ERC721Connector is ERC721Metadata, ERC721Enumerable {\n  \nconstructor( string memory name, string memory  symbol ) ERC721Metadata(name, symbol) {\n \n}\n\n}",
  "sourcePath": "/home/lone/Programming-Stuff/BlockchainProjects/nft-marketplace-ethereum/src/contracts/ERC-721Connector.sol",
  "compiler": {
    "name": "solc",
    "version": "0.8.13+commit.abaa5c0e.Emscripten.clang"
  },
  "schemaVersion": "3.4.7",
  "updatedAt": "2022-04-16T19:16:42.585Z",
  "devdoc": {
    "kind": "dev",
    "methods": {
      "balanceOf(address)": {
        "details": "NFTs assigned to the zero address are considered invalid, and this  function throws for queries about the zero address.",
        "params": {
          "_owner": "An address for whom to query the balance"
        },
        "returns": {
          "_0": "The number of NFTs owned by `_owner`, possibly zero"
        }
      },
      "totalSupply()": {
        "returns": {
          "_0": "A count of valid NFTs tracked by this contract, where each one of  them has an assigned and queryable owner not equal to the zero address"
        }
      }
    },
    "version": 1
  },
  "userdoc": {
    "kind": "user",
    "methods": {
      "balanceOf(address)": {
        "notice": "Count all NFTs assigned to an owner"
      },
      "name()": {
        "notice": "A descriptive name for a collection of NFTs in this contract"
      },
      "symbol()": {
        "notice": "An abbreviated name for NFTs in this contract"
      },
      "totalSupply()": {
        "notice": "Count NFTs tracked by this contract"
      }
    },
    "version": 1
  }
}